:020000040800F2
:1000000000000220A54A00086D06000879060008D5
:1000100085060008910600089D0600080000000003
:10002000000000000000000000000000B50600080D
:10003000A906000800000000C1060008CD0600085F
:10004000ED4A0008ED4A0008ED4A0008ED4A0008B4
:10005000ED4A0008ED4A0008ED4A0008ED4A0008A4
:10006000ED4A0008ED4A0008ED4A0008ED4A000894
:10007000ED4A0008ED4A0008ED4A0008ED4A000884
:10008000ED4A0008ED4A0008ED4A0008ED4A000874
:10009000ED4A0008ED4A0008ED4A0008ED4A000864
:1000A000ED4A0008ED4A0008ED4A0008ED4A000854
:1000B000ED4A0008110A0008ED4A0008ED4A000860
:1000C000ED4A0008ED4A0008ED4A0008ED4A000834
:1000D000ED4A0008ED4A0008ED4A0008ED4A000824
:1000E000ED4A0008ED4A0008ED4A0008ED4A000814
:1000F000ED4A0008ED4A0008ED4A0008ED4A000804
:10010000ED4A0008ED4A0008ED4A0008ED4A0008F3
:10011000ED4A0008ED4A0008ED4A0008ED4A0008E3
:10012000ED4A0008ED4A000879030008ED4A00088E
:10013000ED4A0008ED4A0008ED4A0008ED4A0008C3
:10014000ED4A0008ED4A0008ED4A0008ED4A0008B3
:10015000ED4A0008ED4A0008ED4A0008ED4A0008A3
:10016000ED4A0008ED4A0008ED4A0008ED4A000893
:10017000ED4A0008ED4A0008ED4A0008ED4A000883
:08018000ED4A0008ED4A0008F9
:10018800044B05481B1A062B02D9044B03B1184728
:10019800704700BF630400206004002000000000D6
:1001A80005490648091A891001EBD171491002D096
:1001B800034B03B118477047600400206004002017
:1001C8000000000010B5064C237843B9FFF7D8FFAC
:1001D800044B13B10448AFF300800123237010BD12
:1001E8006004002000000000F04D000808B5084B2E
:1001F8001BB108480849AFF300800848036813B9E1
:10020800BDE80840CCE7064B002BF9D09847F7E744
:1002180000000000F04D0008640400205C04002089
:1002280000000000134B002B08BF114B9D46A3F59F
:10023800803A00218B460F461148124A121A04F0E0
:10024800A7FC0D4B002B00D098470C4B002B00D07F
:1002580098470020002104000D000B4804F044FCDE
:1002680004F06EFC2000290000F098FC04F042FC29
:10027800000008000000000000000000000000006E
:1002880060040020247500201D4B000880B590B044
:1002980000AF4FF48000012101F002F93A2387F8FA
:1002A8003C30002387F83D30002387F83E30012397
:1002B80087F83F3007F13C03184603F09DFB002305
:1002C800FB6200233B6300237B6300233B62002324
:1002D8007B62224B7B600023BB630023FB6100230E
:1002E8007B614FF40033BB624FF480737B624FF045
:1002F800C0633B600023FB60194BBB6047F281037E
:100308003B614FF48063BB611648002104F094F907
:1003180000BF144B1B6803F00103002BF9D13B46C7
:100328001048194604F0FCF80E481021012204F088
:10033800EBFA0C480C4904F0B9FA0A48012104F018
:100348007BF90A480121012203F042FF07480121F5
:1003580003F09CFD4037BD4680BD00BF0C30014016
:10036800940400204064024000003D100030014029
:1003780080B500AF0748084904F000FB0346002B8E
:1003880006D00448044904F051FB044B01221A70BA
:1003980080BD00BF40640240008020107C04002023
:1003A80080B588B000AF0120012101F079F8E02381
:1003B800BB6102233B770023BB7702237B770023B3
:1003C800FB7707F118032748194601F055FB254824
:1003D8000521052201F0BEFC22480621052201F074
:1003E800B9FC20480721052201F0B4FC10200121A6
:1003F80001F056F84FF48050012101F0C9F80023AC
:10040800BB800023FB8000233B8100237B810023EA
:10041800BB814FF40073FB8108233B8200237B825E
:100428003B1D1148194603F0D3FB0F480121012257
:1004380003F0CEFE0C4A0C4B1B889BB243F480732E
:100448009BB21380084A084B1B889BB223F4807325
:100458009BB213800448012103F018FD2037BD46E4
:1004680080BD00BF0000024000300140B0B592B02E
:1004780002AF0346FB71444B07F11C041D460FCD28
:100488000FC42B682360414B07F108041D460FCDAC
:100498000FC42B6823600223FB63FB799B0007F1E1
:1004A8004002134453F8243C5B00BB6308237B637E
:1004B800FB799B0007F14002134453F8383C3B6337
:1004C80000F00AFD012000F02FFD00F03FFD03467B
:1004D800002B55D03B6B00934FF48000796BBA6BBF
:1004E800FB6B00F0B9FD012000F0D4FD00BF284BE4
:1004F8001B6803F00073002BF9D0022000F04AFEBD
:10050800002000F073FEFB79042B37D801A252F8C3
:1005180023F000BF310500083F0500084F0500081B
:100528006105000873050008002000F07BFE00202C
:1005380000F094FE22E04FF4805000F073FE00209B
:1005480000F08CFE1AE04FF4A05000F06BFE4FF460
:10055800805000F083FE11E04FF4A05000F062FEDE
:100568004FF4805000F07AFE08E04FF4A05000F0FD
:1005780059FE4FF4805000F071FE00BF00F0B6FB4A
:100588004037BD46B0BD00BFC04D0008D44D00087F
:100598000038024080B500AF0820012100F080FF3C
:1005A8001020012100F07CFF0C4B4FF6FF721A60FF
:1005B8000A4B01221A71094B03225A71074B002278
:1005C8009A71064B0022DA710548044901F054FA81
:1005D8000448024901F050FA80BD00BF1875002098
:1005E80000100240000C024080B500AF022001213B
:1005F80000F0B0FF184B1D221A70174B00225A70DA
:10060800154B01229A70144B0122DA70124803F03C
:10061800F3F9124B4FF480525A60104B00221A80A3
:100628000E4B00221A810D4B00225A800B4B0022E0
:100638009A720B48094901F0B3FC094800210122CC
:1006480001F032FD06480221012202F0F5FD0448BE
:10065800012101F027FE80BD2075002088040020BC
:100668000004004080B400AFBD465DF8047B7047CD
:1006780080B400AFBD465DF8047B704780B400AF1E
:10068800BD465DF8047B704780B400AFBD465DF899
:10069800047B704780B400AFBD465DF8047B7047AB
:1006A80080B400AFBD465DF8047B704780B400AFEE
:1006B800BD465DF8047B704780B400AFBD465DF869
:1006C800047B704780B400AFBD465DF8047B70477B
:1006D80080B485B000AF0346FB800B46BB80134651
:1006E800FB70FB88B3F5A07F03D3BB88EF2B00D941
:1006F8000DE1F988BA8813469B0013449B010B440B
:10070800002B00DA0733DB10BB810023FB73FB8867
:1007180003F007039BB2072B01D10123FB73FB886E
:1007280003F007039BB2062B01D10223FB73FB885E
:1007380003F007039BB2052B01D10423FB73FB884D
:1007480003F007039BB2042B01D10823FB73FB883A
:1007580003F007039BB2032B01D11023FB73FB8823
:1007680003F007039BB2022B01D12023FB73FB8804
:1007780003F007039BB2012B01D14023FB73FB88D5
:1007880003F007039BB2002B01D18023FB73FB7896
:10079800002B31D1BB89BA895F498A5CD2B2D1B208
:1007A800FA7BD243D2B20A40D2B2D1B25A4AD15419
:1007B800BB8903F51653BA8902F5165256498A5C65
:1007C800D2B2D1B2FA7BD243D2B20A40D2B2D1B2BB
:1007D800514AD154BB8903F59643BA8902F596422A
:1007E8004D498A5CD2B2D1B2FA7BD243D2B20A4026
:1007F800D2B2D1B2484AD154FB78012B2DD1BB8952
:10080800BA8945498A5CD1B2FA7B0A43D1B2424AD5
:10081800D154BB8903F51653BA8902F516523E49DD
:100828008A5CD2B2D1B2FA7BD243D2B20A40D2B2F7
:10083800D1B2394AD154BB8903F59643BA8902F536
:10084800964235498A5CD2B2D1B2FA7BD243D2B24F
:100858000A40D2B2D1B2304AD154FB78022B2DD102
:10086800BB89BA892C498A5CD2B2D1B2FA7BD2430D
:10087800D2B20A43D2B2D1B2274AD154BB8903F5C6
:100888001653BA8902F5165223498A5CD1B2FA7B0B
:100898000A43D1B2204AD154BB8903F59643BA8999
:1008A80002F596421C498A5CD2B2D1B2FA7BD24395
:1008B800D2B20A40D2B2D1B2174AD154FB78032B34
:1008C80025D1BB89BA8914498A5CD1B2FA7B0A431B
:1008D800D1B2114AD154BB8903F51653BA8902F52E
:1008E80016520D498A5CD1B2FA7B0A43D1B20A4A40
:1008F800D154BB8903F59643BA8902F59642064955
:100908008A5CD1B2FA7B0A43D1B2034AD154143774
:10091800BD465DF8047B70479404002080B582B022
:1009280000AF00233B601BE000237B6011E07B6885
:1009380098B23B6899B27B68324A82FB03E2521153
:10094800DB17D31ADBB21A46FFF7C2FE7B68013306
:100958007B607B68B3F5A07FE9DB3B6801333B60D4
:100968003B68EE2BE0DD0A233B6034E03B689AB23B
:100978003B689BB2104619460322FFF7A9FE3B6865
:100988009AB23B689BB2C3F1EF039BB2104619467B
:100998000322FFF79DFE3B689BB2C3F59F730133AB
:1009A8009AB23B689BB2104619460322FFF790FEA5
:1009B8003B689BB2C3F59F7301339AB23B689BB205
:1009C800C3F1EF039BB2104619460322FFF780FEDE
:1009D8003B6801333B603B68C72BC7DD00237B6066
:1009E80009E07B689BB2184600210322FFF770FEDE
:1009F8007B6801337B607B68B3F5A07FF1DB083748
:100A0800BD4680BD6766666680B582B000AF59484E
:100A1800022102F06FFC0346002B03D05548022147
:100A280002F092FC544B1A88544BA3FB0213D909C9
:100A38000B461B015B1A1B01D31A9BB2002B0FD16B
:100A48004F48102101F032F94D48402101F02EF9AC
:100A58004B48402101F038F94948102101F034F998
:100A6800454B1B881A4692001344DB00FB80002389
:100A78007B7141E0FB885A1CFA801A46414B9B5C0B
:100A88003B713B791B01DAB23B791B09DBB2DBB264
:100A98001343DBB23B713B7903F00F03DAB23A4BF5
:100AA8001B78DBB21343DBB263F07F03DBB2FB706E
:100AB800FB789BB23248194601F02CF93048802166
:100AC80001F002F93B791B09DBB2DAB22E4B1B7835
:100AD800DBB21343DBB263F07F03DBB2FB70FB785E
:100AE8009BB22748194601F015F92548802101F0E5
:100AF800EBF87B7901337B717B79272BBAD92048B6
:100B0800402101F0D3F81E48402101F0DDF81A4BCE
:100B18001B8801339AB2184B1A80174B1B88B3F500
:100B2800347F24D3144B00221A80184B1B78012BD6
:100B38000CD1164B00221A70154B00221A80154B47
:100B480000221A70144B00221A7010E0114B1B7807
:100B5800002B0CD10E4B1B8801339AB20C4B1A8018
:100B68000B4B1B88142B02D90A4B01221A70083729
:100B7800BD4680BD0004004086040020898888881E
:100B8800000C024094040020040000207C04002093
:100B980080040020840400208504002080B582B0F1
:100BA80000AF0023FB710420FFF760FCFFF7F2FCA5
:100BB800FFF7B4FEFFF76AFBFFF7F2FBFFF714FD40
:100BC8002B4B1B78012B0BD12A4B1B78002B07D101
:100BD800284B01221A70FFF759FBFFF7E1FB15E0DC
:100BE800254B03F5E1431B78DBB2002B07D1234BE0
:100BF8001B7843F02003DAB2204B1A7006E01F4B33
:100C08001B7823F02003DAB21C4B1A70194B1B789F
:100C1800012B1DD1FB79802B0DD9174B0F221A7090
:100C2800154B03F516530F221A70134B03F5964311
:100C38000F221A700CE0104BF0221A700E4B03F5BD
:100C48001653F0221A700C4B03F59643F0221A70D3
:100C5800FB79802B04D90A48012101F035F803E01B
:100C68000748012101F022F8FB790133FB71A7E75E
:100C7800840400208504002094040020040000203F
:100C88000010024080B500AF154A154BD3F88830E4
:100C980043F47003C2F88830124A124B1B6843F0C1
:100CA800010313600F4B00229A600E4A0D4B1B681C
:100CB80023F0847323F4803313600A4B0A4A5A6082
:100CC800084A084B1B6823F480231360054B002255
:100CD800DA6000F087F8024B4FF000629A6080BD3E
:100CE80000ED00E0003802401030002480B487B0E6
:100CF80000AF00233B6100237B610223FB600023DC
:100D0800BB6002237B60324B9B6803F00C033B61A2
:100D18003B69042B07D0082B09D0002B3FD12D4B62
:100D28002D4A1A603FE02B4B2C4A1A603BE0284BB7
:100D38005B6803F480039B0DBB60254B5B6803F085
:100D48003F037B60BB68002B0DD0244A7B68B2FB55
:100D5800F3F21F4B596847F6C0730B409B0903FB1E
:100D680002F37B610CE01C4A7B68B2FBF3F2184B80
:100D7800596847F6C0730B409B0903FB02F37B617C
:100D8800134B5B6803F440331B0C01335B00FB60BF
:100D98007A69FB68B2FBF3F30E4A136003E00D4B6C
:100DA8000D4A1A6000BF0A4B9B6803F0F0031B0949
:100DB8000B4AD35CDBB23B61064B1A683B6922FAEB
:100DC80003F3044A13601C37BD465DF8047B704783
:100DD80000380240080000200024F40000127A00C5
:100DE8000C00002080B483B000AF00237B60002398
:100DF8003B60354A344B1B6843F480331360324BF5
:100E08001B6803F400333B607B6801337B603B68FD
:100E1800002B03D17B68B3F5A06FF0D12A4B1B6878
:100E280003F40033002B02D001233B6001E00023D0
:100E38003B603B68012B42D1234A234B1B6C43F098
:100E480080531364214A214B1B6843F48043136089
:100E58001D4A1D4B9B6893601B4A1B4B9B6843F4C0
:100E680000439360184A184B9B6843F4A05393605F
:100E7800154B174A5A60144A134B1B6843F080738A
:100E8800136000BF104B1B6803F00073002BF9D0F0
:100E9800104B40F205621A600B4A0B4B9B6823F01B
:100EA80003039360084A084B9B6843F0020393606E
:100EB80000BF054B9B6803F00C03082BF9D10C37D6
:100EC800BD465DF8047B7047003802400070004062
:100ED80019544007003C024080B400AF104A104B40
:100EE8001B6843F0010313600D4B00229A600C4A03
:100EF8000B4B1B6823F0847323F480331360084B77
:100F0800084A5A60064A064B1B6823F4802313607C
:100F1800034B0022DA60BD465DF8047B704700BFD2
:100F2800003802401030002480B483B000AF03467C
:100F3800FB71054B00221A70034AFB7913700C37BA
:100F4800BD465DF8047B70470238024080B582B028
:100F580000AF00233B600023FB710023BB713120ED
:100F680000F086FC0346BB713B6801333B603B687D
:100F7800B3F5A06F02D0BB79002BF0D0312000F080
:100F880077FC0346002B02D00123FB7101E000230C
:100F9800FB71FB7918460837BD4680BD80B485B023
:100FA80000AF0346FB710023FB600A4B1B68FB6024
:100FB800FB6823F0F803FB60FB79DB00FA68134356
:100FC800FB60044AFB6813601437BD465DF8047B78
:100FD800704700BF0038024080B483B000AF0346BA
:100FE800FB71044AFB7913600C37BD465DF8047B3E
:100FF800704700BF0000474280B483B000AF03468B
:10100800FB710C4B00221A700A4B00221A70FB79F4
:10101800012B02D0042B04D007E0064B01221A70E2
:1010280003E0044B05221A7000BF0C37BD465DF87B
:10103800047B70477038024080B483B000AF034629
:10104800FB71044AFB7913600C37BD465DF8047BDD
:10105800704700BF800E474280B485B000AFF8608B
:10106800B9607A603B600A497B689A01BB681A4399
:101078003B685B08013B1B041A43FB681A43BB69C6
:101088001B0613434B601437BD465DF8047B70475D
:101098000038024080B483B000AF0346FB71044AB5
:1010A800FB7913600C37BD465DF8047B704700BFC1
:1010B8006000474280B483B000AF78603960064969
:1010C8007B689A013B681B071343C1F884300C37CF
:1010D800BD465DF8047B70470038024080B483B099
:1010E80000AF0346FB71044AFB7913600C37BD4619
:1010F8005DF8047B704700BF6800474280B483B046
:1011080000AF0346FB71044AFB7913600C37BD46F8
:101118005DF8047B704700BF4C00474280B485B03F
:1011280000AF786039600023FB600A4B9B68FB6066
:10113800FB6823F0EC63FB607A683B681343FA684A
:101148001343FB60034AFB6893601437BD465DF8A0
:10115800047B70470038024080B485B000AF7860E7
:1011680039600023FB600A4B9B68FB60FB6823F037
:101178007843FB607A683B681343FA681343FB6063
:10118800034AFB6893601437BD465DF8047B7047DB
:101198000038024080B485B000AF78600023FB605F
:1011A800094B9B68FB60FB6823F00303FB60FA684C
:1011B8007B681343FB60044AFB6893601437BD46A1
:1011C8005DF8047B704700BF0038024080B400AF70
:1011D800054B9B68DBB203F00C03DBB21846BD4637
:1011E8005DF8047B704700BF0038024080B485B0CA
:1011F80000AF78600023FB60094B9B68FB60FB68CD
:1012080023F0F003FB60FA687B681343FB60044A31
:10121800FB6893601437BD465DF8047B704700BFD8
:101228000038024080B485B000AF78600023FB60CE
:10123800094B9B68FB60FB6823F4E053FB60FA688A
:101248007B681343FB60044AFB6893601437BD4610
:101258005DF8047B704700BF0038024080B485B059
:1012680000AF78600023FB60094B9B68FB60FB685C
:1012780023F46043FB607B68DB00FA681343FB6080
:10128800034AFB6893601437BD465DF8047B7047DA
:101298000038024080B489B000AF78600023BB6199
:1012A80000237B610023FB6102233B610023FB6079
:1012B8000223BB60484B9B6803F00C03BB61BB690E
:1012C800042B07D0082B09D0002B3FD17B68434A59
:1012D8001A603FE07B68424A1A603BE03E4B5B681D
:1012E80003F480039B0DFB603B4B5B6803F03F03FB
:1012F800BB60FB68002B0DD0394ABB68B2FBF3F228
:10130800354B596847F6C0730B409B0903FB02F342
:10131800FB610CE0314ABB68B2FBF3F22E4B596813
:1013280047F6C0730B409B0903FB02F3FB612A4B92
:101338005B6803F440331B0C01335B003B61FA69C3
:101348003B69B2FBF3F27B681A6003E07B68234ACF
:101358001A6000BF204B9B6803F0F003BB61BB69B8
:101368001B09BB611F4ABB6913441B78DBB27B6155
:101378007B681A687B69DA407B685A60164B9B6801
:1013880003F4E053BB61BB699B0ABB61154ABB69A7
:1013980013441B78DBB27B617B685A687B69DA404F
:1013A8007B689A600C4B9B6803F46043BB61BB6924
:1013B8005B0BBB610B4ABB6913441B78DBB27B61D7
:1013C8007B685A687B69DA407B68DA602437BD46F7
:1013D8005DF8047B704700BF003802400024F40029
:1013E80000127A001C00002080B485B000AF78603D
:1013F8000023FB607B6803F44073B3F5407F11D191
:101408000F4B9B68FB60FB6823F4F813FB607B6859
:1014180023F0704323F44073FA681343FB60084ACF
:10142800FB6893600649064B1A6F7B68C3F30B038E
:1014380013430B671437BD465DF8047B704700BF44
:101448000038024080B483B000AF0346FB71044A01
:10145800FB7913600C37BD465DF8047B704700BF0D
:101468003C0E474280B483B000AF0346FB71044A88
:10147800FB7913600C37BD465DF8047B704700BFED
:10148800400E474280B483B000AF7860034A7B685F
:1014980013600C37BD465DF8047B70475C0147421A
:1014A80080B483B000AF78600B46FB70FB78002BEC
:1014B80006D00949084B1A6B7B6813430B6306E097
:1014C8000549054B1A6B7B68DB4313400B630C37EC
:1014D800BD465DF8047B70470038024080B483B095
:1014E80000AF78600B46FB70FB78002B06D00949EB
:1014F800084B5A6B7B6813434B6306E00549054B61
:101508005A6B7B68DB4313404B630C37BD465DF871
:10151800047B70470038024080B483B000AF786025
:101528000B46FB70FB78002B06D00949084B9A6BD9
:101538007B6813438B6306E00549054B9A6B7B6810
:10154800DB4313408B630C37BD465DF8047B704763
:101558000038024080B483B000AF78600B46FB705F
:10156800FB78002B06D00949084B1A6C7B6813439B
:101578000B6406E00549054B1A6C7B68DB43134096
:101588000B640C37BD465DF8047B70470038024099
:1015980080B483B000AF78600B46FB70FB78002BFB
:1015A80006D00949084B5A6C7B6813434B6406E024
:1015B8000549054B5A6C7B68DB4313404B640C3779
:1015C800BD465DF8047B70470038024080B483B0A4
:1015D80000AF78600B46FB70FB78002B06D00949FA
:1015E800084B1A697B6813430B6106E00549054BF4
:1015F8001A697B68DB4313400B610C37BD465DF805
:10160800047B70470038024080B483B000AF786034
:101618000B46FB70FB78002B06D00949084B5A692A
:101628007B6813434B6106E00549054B5A697B68A3
:10163800DB4313404B610C37BD465DF8047B7047B4
:101648000038024080B483B000AF78600B46FB706E
:10165800FB78002B06D00949084B9A697B6813432D
:101668008B6106E00549054B9A697B68DB431340AB
:101678008B610C37BD465DF8047B7047003802402B
:1016880080B483B000AF78600B46FB70FB78002B0A
:1016980006D00949084B1A6A7B6813430B6206E0B7
:1016A8000549054B1A6A7B68DB4313400B620C370C
:1016B800BD465DF8047B70470038024080B483B0B3
:1016C80000AF78600B46FB70FB78002B06D0094909
:1016D800084B5A6A7B6813434B6206E00549054B81
:1016E8005A6A7B68DB4313404B620C37BD465DF892
:1016F800047B70470038024080B483B000AF786044
:101708000B46FB70FB78002B06D00949084B1A6D75
:101718007B6813430B6506E00549054B1A6D7B682A
:10172800DB4313400B650C37BD465DF8047B7047FF
:101738000038024080B483B000AF78600B46FB707D
:10174800FB78002B06D00949084B5A6D7B68134378
:101758004B6506E00549054B5A6D7B68DB43134032
:101768004B650C37BD465DF8047B70470038024076
:1017780080B483B000AF78600B46FB70FB78002B19
:1017880006D00949084B9A6D7B6813438B6506E0C0
:101798000549054B9A6D7B68DB4313408B650C3715
:1017A800BD465DF8047B70470038024080B483B0C2
:1017B80000AF78600B46FB70FB78002B06D0094918
:1017C800084B1A6E7B6813430B6606E00549054B08
:1017D8001A6E7B68DB4313400B660C37BD465DF819
:1017E800047B70470038024080B483B000AF786053
:1017F8000B46FB70FB78002B06D00949084B5A6E44
:101808007B6813434B6606E00549054B5A6E7B68B7
:10181800DB4313404B660C37BD465DF8047B7047CD
:101828000038024080B483B000AF03460A46FB711B
:101838001346BB71BB79002B08D00C490B4B1B78A6
:10184800DAB2FB791343DBB20B7009E00749074BA7
:101858001B78DAB2FB79DB43DBB21340DBB20B70E7
:101868000C37BD465DF8047B704700BF0D38024059
:1018780080B487B000AF0346FB710023FB600023F0
:101888007B610023FB74FB795B09DBB2FB60FB68BF
:10189800012B03D1124B1B687B6109E0FB68022B0B
:1018A80003D10F4B1B6F7B6102E00D4B5B6F7B61BC
:1018B800FB7903F01F03FB60FB687A6922FA03F3E4
:1018C80003F00103002B02D00123FB7401E0002385
:1018D800FB74FB7C18461C37BD465DF8047B7047DB
:1018E8000038024080B400AF044A044B5B6F43F0F9
:1018F80080735367BD465DF8047B7047003802402B
:1019080080B485B000AF0346FB710023FB73094B1D
:10191800DA68FB791340002B02D00123FB7301E046
:101928000023FB73FB7B18461437BD465DF8047B28
:10193800704700BF0038024080B483B000AF034650
:10194800FB71044AFB7913700C37BD465DF8047BC4
:10195800704700BF0E38024080B582B000AF786093
:101968007B683C4A934208D101200121FFF72EFEF3
:1019780001200021FFF72AFE68E07B68364A93427F
:1019880008D102200121FFF721FE02200021FFF7E4
:101998001DFE5BE07B68314A934208D10420012197
:1019A800FFF714FE04200021FFF710FE4EE07B68CD
:1019B8002B4A934208D108200121FFF707FE08208F
:1019C8000021FFF703FE41E07B68264A934208D1D5
:1019D80010200121FFF7FAFD10200021FFF7F6FD86
:1019E80034E07B68204A934208D120200121FFF788
:1019F800EDFD20200021FFF7E9FD27E07B681B4A69
:101A0800934208D140200121FFF7E0FD402000214A
:101A1800FFF7DCFD1AE07B68154A934208D1802065
:101A28000121FFF7D3FD80200021FFF7CFFD0DE056
:101A38007B68104A934209D14FF480700121FFF767
:101A4800C5FD4FF480700021FFF7C0FD0837BD4683
:101A580080BD00BF000002400004024000080240B0
:101A6800000C02400010024000140240001802401E
:101A7800001C02400020024080B487B000AF7860AC
:101A8800396000237B6100233B610023FB60002356
:101A98007B6176E07B69012202FA03F33B613B68D4
:101AA8001A683B691340FB60FA683B699A4265D142
:101AB8007B681A687B695B00194603238B40DB430C
:101AC8001A407B681A607B681A683B681B7919465C
:101AD8007B695B0001FA03F31A437B681A603B6871
:101AE8001B79012B03D03B681B79022B2ED17B6815
:101AF8009A687B695B00194603238B40DB431A40D5
:101B08007B689A607B689A683B685B7919467B6951
:101B18005B0001FA03F31A437B689A607B685A6892
:101B28007B699BB2194601238B40DB431A407B68D3
:101B38005A607B685B683A68927911467A6992B212
:101B480001FA02F292B21A437B685A607B68DA683B
:101B58007B699BB25B00032101FA03F3DB431A4064
:101B68007B68DA607B68DA683B68DB7919467B69F1
:101B78005B0001FA03F31A437B68DA607B6901337F
:101B88007B617B690F2B85D91C37BD465DF8047BCB
:101B9800704700BF80B483B000AF78607B684FF6B1
:101BA800FF721A607B6800221A717B6800225A71E2
:101BB8007B6800229A717B680022DA710C37BD4677
:101BC8005DF8047B704700BF80B485B000AF7860D3
:101BD8000B467B804FF48033FB607A88FB681343A5
:101BE800FB60FA687B68DA617A887B68DA61FA6890
:101BF8007B68DA617B68DB69FB607B68DB69FB60BB
:101C08001437BD465DF8047B704700BF80B485B0CB
:101C180000AF78600B467B800023FB737B681A69F2
:101C28007B881340002B02D00123FB7301E00023C3
:101C3800FB73FB7B18461437BD465DF8047B704781
:101C480080B483B000AF78607B681B699BB218468C
:101C58000C37BD465DF8047B704700BF80B485B083
:101C680000AF78600B467B800023FB737B685A6962
:101C78007B881340002B02D00123FB7301E0002373
:101C8800FB73FB7B18461437BD465DF8047B704731
:101C980080B483B000AF78607B685B699BB21846FC
:101CA8000C37BD465DF8047B704700BF80B483B035
:101CB80000AF78600B467B807B687A881A830C3784
:101CC800BD465DF8047B704780B483B000AF786090
:101CD8000B467B807B687A885A830C37BD465DF853
:101CE800047B704780B483B000AF78600B467B807C
:101CF80013467B707B78002B03D07B687A881A8325
:101D080002E07B687A885A830C37BD465DF8047B0D
:101D1800704700BF80B483B000AF78600B467B800B
:101D28007A887B685A610C37BD465DF8047B70473A
:101D380080B483B000AF78600B467B807B685A69BB
:101D48007B885A407B685A610C37BD465DF8047B36
:101D5800704700BF80B485B000AF78600B467B80C9
:101D680013467B700023FB600023BB607B787A8876
:101D780002F0070292009340FB607B88DB089BB26D
:101D880018467B88DB089BB21A467B68083253F8F2
:101D980022207B8803F007039B0019460F238B4002
:101DA800DB4302EA03017B6800F1080243F82210D2
:101DB8007B88DB089BB21A467B68083253F82220DE
:101DC800FB681343BB607B88DB089BB21A467B68C1
:101DD8000832B96843F822101437BD465DF8047B11
:101DE800704700BF80B582B000AF78607B685F4AFB
:101DF800934208D101200121FFF760FC0120002156
:101E0800FFF75CFCAFE07B68B3F1804F08D101209D
:101E18000121FFF735FC01200021FFF731FCA2E08A
:101E28007B68534A934208D102200121FFF728FC1E
:101E380002200021FFF724FC95E07B684D4A93427D
:101E480008D104200121FFF71BFC04200021FFF723
:101E580017FC88E07B68484A934208D10820012192
:101E6800FFF70EFC08200021FFF70AFC7BE07B68E7
:101E7800424A934208D110200121FFF701FC1020AB
:101E88000021FFF7FDFB6EE07B683D4A934208D1D5
:101E980020200121FFF7F4FB20200021FFF7F0FBB1
:101EA80061E07B68374A934208D102200121FFF79D
:101EB80005FC02200021FFF701FC54E07B68324A50
:101EC80093420AD14FF480300121FFF7F7FB4FF41A
:101ED80080300021FFF7F2FB45E07B682B4A9342F4
:101EE8000AD14FF400300121FFF7E8FB4FF400302E
:101EF8000021FFF7E3FB36E07B68254A93420AD1CD
:101F08004FF480200121FFF7D9FB4FF480200021F6
:101F1800FFF7D4FB27E07B681E4A934208D1402094
:101F28000121FFF7ADFB40200021FFF7A9FB1AE0D4
:101F38007B68194A934208D180200121FFF7A0FB52
:101F480080200021FFF79CFB0DE07B68134A934239
:101F580009D14FF480700121FFF792FB4FF4807094
:101F68000021FFF78DFB0837BD4680BD000001400A
:101F78000004004000080040000C00400010004031
:101F880000140040000401400040014000440140AA
:101F98000048014000180040001C0040002000409C
:101FA80080B485B000AF786039600023FB817B681E
:101FB8001B88FB817B68284A934213D07B68274A99
:101FC80093420FD07B68B3F1804F0BD07B68244AD3
:101FD800934207D07B68234A934203D07B68224A06
:101FE800934208D1FB8923F07003FB813B685A8830
:101FF800FB891343FB817B681C4A93420CD07B68A6
:102008001B4A934208D0FB8923F44073FB813B6849
:102018001A89FB891343FB817B68FA891A803B681C
:102028005A687B68DA623B681A887B681A857B681D
:10203800094A934203D07B68084A934204D13B681B
:102048009B7A9AB27B681A867B6801229A82143737
:10205800BD465DF8047B7047000001400004014064
:102068000004004000080040000C00400010004040
:102078000014004080B483B000AF78607B684FF0F4
:10208800FF325A607B6800221A807B6800221A811E
:102098007B6800225A807B6800229A720C37BD4602
:1020A8005DF8047B704700BF80B483B000AF7860F0
:1020B8000B467B8013463B807B687A881A857B6851
:1020C8003A889A820C37BD465DF8047B704700BF9A
:1020D80080B485B000AF78600B467B800023FB811D
:1020E8007B681B88FB81FB8923F07003FB81FA89DD
:1020F8007B881343FB817B68FA891A801437BD46B5
:102108005DF8047B704700BF80B483B000AF78608F
:1021180039607B683A685A620C37BD465DF8047BC3
:10212800704700BF80B483B000AF786039607B68C7
:102138003A68DA620C37BD465DF8047B704700BF29
:1021480080B483B000AF78607B685B6A18460C3750
:10215800BD465DF8047B704780B483B000AF7860FB
:102168007B681B8D9BB218460C37BD465DF8047B17
:10217800704700BF80B483B000AF78600B46FB7037
:10218800FB78002B08D07B681B889BB243F00203C6
:102198009AB27B681A8007E07B681B889BB223F0A1
:1021A80002039AB27B681A800C37BD465DF8047B3F
:1021B800704700BF80B483B000AF78600B467B8067
:1021C8007B88002B08D07B681B889BB243F00403F4
:1021D8009AB27B681A8007E07B681B889BB223F061
:1021E80004039AB27B681A800C37BD465DF8047BFD
:1021F800704700BF80B483B000AF78600B46FB70B7
:10220800FB78002B08D07B681B889BB243F08003C7
:102218009AB27B681A8007E07B681B889BB223F020
:1022280080039AB27B681A800C37BD465DF8047B40
:10223800704700BF80B483B000AF78600B467B80E6
:102248007B681B889BB223F008039AB27B681A80CC
:102258007B681B889AB27B8813439AB27B681A8082
:102268000C37BD465DF8047B704700BF80B483B06F
:1022780000AF78600B467B807B681B889BB223F499
:1022880040739AB27B681A807B681B889AB27B88F5
:1022980013439AB27B681A800C37BD465DF8047BFD
:1022A800704700BF80B483B000AF78600B46FB7006
:1022B800FB78002B08D07B681B889BB243F0010396
:1022C8009AB27B681A8007E07B681B889BB223F070
:1022D80001039AB27B681A800C37BD465DF8047B0F
:1022E800704700BF80B485B000AF786039600023C4
:1022F8007B810023FB810023BB817B681B8C9BB205
:1023080023F001039AB27B681A847B681B8CFB81DB
:102318007B689B88BB817B681B8B7B817B8923F0D7
:1023280070037B817B8923F003037B813B681A88D8
:102338007B8913437B81FB8923F00203FB813B6884
:102348009A89FB891343FB813B685A88FB891343AD
:10235800FB817B681E4A934203D07B681D4A9342E7
:1023680023D1FB8923F00803FB813B68DA89FB89C9
:102378001343FB81FB8923F00403FB813B689A88A4
:10238800FB891343FB81BB8923F48073BB81BB8921
:1023980023F40073BB813B681A8ABB891343BB8152
:1023A8003B685A8ABB891343BB817B68BA899A8088
:1023B8007B687A891A833B689A687B685A637B686A
:1023C800FA891A841437BD465DF8047B704700BF4C
:1023D800000001400004014080B485B000AF78607F
:1023E800396000237B810023FB810023BB817B684C
:1023F8001B8C9BB223F010039AB27B681A847B680B
:102408001B8CFB817B689B88BB817B681B8B7B81DA
:102418007B8923F4E0437B817B8923F440737B81B0
:102428003B681B881B029AB27B8913437B81FB891B
:1024380023F02003FB813B689B891B019AB2FB892F
:102448001343FB813B685B881B019AB2FB891343EA
:10245800FB817B68224A934203D07B68214A9342DE
:102468002BD1FB8923F08003FB813B68DB891B01AF
:102478009AB2FB891343FB81FB8923F04003FB815C
:102488003B689B881B019AB2FB891343FB81BB897C
:1024980023F48063BB81BB8923F40063BB813B6861
:1024A8001B8A9B009AB2BB891343BB813B685B8A3A
:1024B8009B009AB2BB891343BB817B68BA899A8017
:1024C8007B687A891A833B689A687B689A637B6819
:1024D800FA891A841437BD465DF8047B704700BF3B
:1024E800000001400004014080B485B000AF78606E
:1024F800396000237B810023FB810023BB817B683B
:102508001B8C9BB223F480739AB27B681A847B6815
:102518001B8CFB817B689B88BB817B689B8B7B8149
:102528007B8923F070037B817B8923F003037B8104
:102538003B681A887B8913437B81FB8923F40073EA
:10254800FB813B689B891B029AB2FB891343FB8181
:102558003B685B881B029AB2FB891343FB817B684B
:10256800224A934203D07B68214A93422BD1FB89AC
:1025780023F40063FB813B68DB891B029AB2FB8969
:102588001343FB81FB8923F48063FB813B689B88B1
:102598001B029AB2FB891343FB81BB8923F4805346
:1025A800BB81BB8923F40053BB813B681B8A1B0199
:1025B8009AB2BB891343BB813B685B8A1B019AB201
:1025C800BB891343BB817B68BA899A807B687A8907
:1025D8009A833B689A687B68DA637B68FA891A840D
:1025E8001437BD465DF8047B704700BF000001400A
:1025F8000004014080B485B000AF786039600023E2
:10260800BB8100237B810023FB817B681B8C9BB2F1
:1026180023F480539AB27B681A847B681B8C7B8175
:102628007B689B88FB817B689B8BBB81BB8923F480
:10263800E043BB81BB8923F44073BB813B681B88A3
:102648001B029AB2BB891343BB817B8923F40053D5
:102658007B813B689B891B039AB27B8913437B81EF
:102668003B685B881B039AB27B8913437B817B6839
:10267800114A934203D07B68104A93420AD1FB89DE
:1026880023F48043FB813B681B8A9B019AB2FB8938
:102698001343FB817B68FA899A807B68BA899A839D
:1026A8003B689A687B681A647B687A891A8414374D
:1026B800BD465DF8047B70470000014000040140FE
:1026C80080B483B000AF78607B6800221A807B6892
:1026D80000225A807B6800229A807B6800229A60D8
:1026E8007B6800229A817B680022DA817B6800225D
:1026F8001A827B6800225A820C37BD465DF8047B3B
:10270800704700BF80B485B000AF78600B467B800F
:1027180013463B800023FB6000237B817B68FB60C2
:10272800FB681833FB607B88012202FA03F37B8184
:102738007B681B8C9AB27B89DB439BB213409AB2AD
:102748007B681A847B88002B02D07B88082B14D1E5
:102758007B885B089BB21A46FB681344FB60FA68E7
:10276800FB6819684FF68F730B401360FB68FA68B3
:1027780011683A880A431A6017E07B88043B9BB2C9
:102788005B089BB21A46FB681344FB60FA68FB6857
:10279800196848F6FF730B401360FB68FA68126803
:1027A8003988090289B20A431A601437BD465DF8B0
:1027B800047B704780B483B000AF786039607B6871
:1027C8003A685A630C37BD465DF8047B704700BF12
:1027D80080B483B000AF786039607B683A689A63E8
:1027E8000C37BD465DF8047B704700BF80B483B0EA
:1027F80000AF786039607B683A68DA630C37BD46A9
:102808005DF8047B704700BF80B483B000AF786088
:1028180039607B683A681A640C37BD465DF8047BFA
:10282800704700BF80B485B000AF78600B467B80EE
:102838000023FB817B681B8BFB81FB8923F07003E2
:10284800FB81FA897B881343FB817B68FA891A83A9
:102858001437BD465DF8047B704700BF80B485B06F
:1028680000AF78600B467B800023FB817B681B8B65
:10287800FB81FB8923F4E043FB817B881B029AB22E
:10288800FB891343FB817B68FA891A831437BD4699
:102898005DF8047B704700BF80B485B000AF7860F6
:1028A8000B467B800023FB817B689B8BFB81FB892C
:1028B80023F07003FB81FA897B881343FB817B68D3
:1028C800FA899A831437BD465DF8047B704700BFC8
:1028D80080B485B000AF78600B467B800023FB8115
:1028E8007B689B8BFB81FB8923F4E043FB817B881E
:1028F8001B029AB2FB891343FB817B68FA899A838E
:102908001437BD465DF8047B704700BF80B485B0BE
:1029180000AF78600B467B800023FB817B681B8BB4
:10292800FB81FB8923F00803FB81FA897B88134329
:10293800FB817B68FA891A831437BD465DF8047BEE
:10294800704700BF80B485B000AF78600B467B80CD
:102958000023FB817B681B8BFB81FB8923F40063CD
:10296800FB817B881B029AB2FB891343FB817B683E
:10297800FA891A831437BD465DF8047B704700BF97
:1029880080B485B000AF78600B467B800023FB8164
:102998007B689B8BFB81FB8923F00803FB81FA8909
:1029A8007B881343FB817B68FA899A831437BD4679
:1029B8005DF8047B704700BF80B485B000AF7860D5
:1029C8000B467B800023FB817B689B8BFB81FB890B
:1029D80023F40063FB817B881B029AB2FB891343B3
:1029E800FB817B68FA899A831437BD465DF8047BBE
:1029F800704700BF80B485B000AF78600B467B801D
:102A08000023FB817B681B8BFB81FB8923F004037C
:102A1800FB81FA897B881343FB817B68FA891A83D7
:102A28001437BD465DF8047B704700BF80B485B09D
:102A380000AF78600B467B800023FB817B681B8B93
:102A4800FB81FB8923F48063FB817B881B029AB29C
:102A5800FB891343FB817B68FA891A831437BD46C7
:102A68005DF8047B704700BF80B485B000AF786024
:102A78000B467B800023FB817B689B8BFB81FB895A
:102A880023F00403FB81FA897B881343FB817B686D
:102A9800FA899A831437BD465DF8047B704700BFF6
:102AA80080B485B000AF78600B467B800023FB8143
:102AB8007B689B8BFB81FB8923F48063FB817B888C
:102AC8001B029AB2FB891343FB817B68FA899A83BC
:102AD8001437BD465DF8047B704700BF80B485B0ED
:102AE80000AF78600B467B800023FB817B681B8BE3
:102AF800FB81FB8923F08003FB81FA897B881343E0
:102B0800FB817B68FA891A831437BD465DF8047B1C
:102B1800704700BF80B485B000AF78600B467B80FB
:102B28000023FB817B681B8BFB81FB89C3F30E03AE
:102B3800FB817B881B029AB2FB891343FB817B686C
:102B4800FA891A831437BD465DF8047B704700BFC5
:102B580080B485B000AF78600B467B800023FB8192
:102B68007B689B8BFB81FB8923F08003FB81FA89BF
:102B78007B881343FB817B68FA899A831437BD46A7
:102B88005DF8047B704700BF80B485B000AF786003
:102B98000B467B800023FB817B689B8BFB81FB8939
:102BA800C3F30E03FB817B881B029AB2FB89134394
:102BB800FB817B68FA899A831437BD465DF8047BEC
:102BC800704700BF80B485B000AF78600B467B804B
:102BD8000023FB817B681B8CFB81FB8923F00203AC
:102BE800FB81FA897B881343FB817B68FA891A8405
:102BF8001437BD465DF8047B704700BF80B485B0CC
:102C080000AF78600B467B800023FB817B681B8CC0
:102C1800FB81FB8923F00803FB81FA897B88134336
:102C2800FB817B68FA891A841437BD465DF8047BFA
:102C3800704700BF80B485B000AF78600B467B80DA
:102C48000023FB817B681B8CFB81FB8923F020031D
:102C5800FB817B881B019AB2FB891343FB817B684C
:102C6800FA891A841437BD465DF8047B704700BFA3
:102C780080B485B000AF78600B467B800023FB8171
:102C88007B681B8CFB81FB8923F08003FB817B889D
:102C98001B019AB2FB891343FB817B68FA891A846A
:102CA8001437BD465DF8047B704700BF80B485B01B
:102CB80000AF78600B467B800023FB817B681B8C10
:102CC800FB81FB8923F40073FB817B881B029AB28A
:102CD800FB891343FB817B68FA891A841437BD4644
:102CE8005DF8047B704700BF80B485B000AF7860A2
:102CF8000B467B800023FB817B681B8CFB81FB8957
:102D080023F40063FB817B881B029AB2FB8913437F
:102D1800FB817B68FA891A841437BD465DF8047B09
:102D2800704700BF80B485B000AF78600B467B80E9
:102D38000023FB817B681B8CFB81FB8923F40053F8
:102D4800FB817B881B039AB2FB891343FB817B6859
:102D5800FA891A841437BD465DF8047B704700BFB2
:102D680080B485B000AF78600B467B8013463B800B
:102D78000023FB817B88012202FA03F3FB817B6835
:102D88001B8C9AB2FB89DB439BB213409AB27B68D7
:102D98001A847B681B8C9AB239887B8801FA03F302
:102DA8009BB213439AB27B681A841437BD465DF808
:102DB800047B704780B485B000AF78600B467B8099
:102DC80013463B800023FB817B88042202FA03F32D
:102DD800FB817B681B8C9AB2FB89DB439BB2134057
:102DE8009AB27B681A847B681B8C9AB239887B8874
:102DF80001FA03F39BB213439AB27B681A8414371F
:102E0800BD465DF8047B704780B582B000AF78603E
:102E180039603B681B88002B0FD13B6859883B6899
:102E28009A883B681B89786800F0B0FC3B68DB88AF
:102E38007868194600F0E0F836E03B681B88042BF8
:102E48000FD13B6859883B689A883B681B8978682A
:102E580000F0DEFC3B68DB887868194600F0E8F88B
:102E680022E03B681B88082B0FD13B6859883B68D8
:102E78009A883B681B89786800F016FD3B68DB88F8
:102E88007868194600F0F2F80EE03B6859883B680C
:102E98009A883B681B89786800F04EFD3B68DB88A0
:102EA8007868194600F0FEF80837BD4680BD00BFB7
:102EB80080B483B000AF78607B6800221A807B689A
:102EC80000225A807B6801229A807B680022DA807F
:102ED8007B6800221A810C37BD465DF8047B704779
:102EE80080B584B000AF786039600023FB8101238E
:102EF800BB813B685B88002B02D10223FB8101E088
:102F08000023FB813B689B88012B02D10223BB81F4
:102F180001E00123BB813B681B88002B1CD13B6867
:102F280059883B689A883B681B89786800F02EFCB2
:102F38003B68DB887868194600F05EF83B681B89B7
:102F4800F989BA89786800F063FC3B68DB8878689F
:102F5800194600F06DF81BE03B6859883B689A8871
:102F68003B681B89786800F053FC3B68DB8878680D
:102F7800194600F05DF83B681B89F989BA897868B9
:102F880000F004FC3B68DB887868194600F034F8E8
:102F98001037BD4680BD00BF80B483B000AF7860F5
:102FA8007B685B6B18460C37BD465DF8047B704741
:102FB80080B483B000AF78607B689B6B18460C3791
:102FC800BD465DF8047B704780B483B000AF78607D
:102FD8007B68DB6B18460C37BD465DF8047B704791
:102FE80080B483B000AF78607B681B6C18460C37E0
:102FF800BD465DF8047B704780B483B000AF78604D
:103008000B467B807B681B8B9BB223F00C039AB228
:103018007B681A837B681B8B9AB27B8813439AB2AE
:103028007B681A830C37BD465DF8047B704700BF88
:1030380080B483B000AF78600B467B807B681B8BC5
:103048009BB223F440639AB27B681A837B681B8B1C
:103058009AB27B881B029BB213439AB27B681A838D
:103068000C37BD465DF8047B704700BF80B483B061
:1030780000AF78600B467B807B689B8B9BB223F00C
:103088000C039AB27B689A837B689B8B9AB27B8885
:1030980013439AB27B689A830C37BD465DF8047B6C
:1030A800704700BF80B483B000AF78600B467B8068
:1030B8007B689B8B9BB223F440639AB27B689A83AC
:1030C8007B689B8B9AB27B881B029BB213439AB294
:1030D8007B689A830C37BD465DF8047B704700BF58
:1030E80080B483B000AF786039603B681A883B6869
:1030F8005B8813439AB23B689B8813439AB23B6838
:10310800DB8813439AB23B681B8913439AB23B6826
:103118005B8913439AB23B689B8913439AB27B68D5
:10312800A3F844200C37BD465DF8047B704700BF08
:1031380080B483B000AF78607B6800221A807B6817
:1031480000225A807B6800229A807B680022DA80FD
:103158007B6800221A817B6800225A817B680022E2
:103168009A810C37BD465DF8047B704780B483B004
:1031780000AF78600B46FB70FB78002B0CD07B68A7
:10318800B3F844309BB26FEA43436FEA53439AB2B1
:103198007B68A3F8442009E07B68B3F844309BB20D
:1031A800C3F30E039AB27B68A3F844200C37BD46DC
:1031B8005DF8047B704700BF80B483B000AF7860CF
:1031C8000B46FB70FB78002B08D07B689B889BB272
:1031D80043F004039AB27B689A8007E07B689B8877
:1031E8009BB223F004039AB27B689A800C37BD46E1
:1031F8005DF8047B704700BF80B483B000AF78608F
:103208000B46FB70FB78002B08D07B689B889BB231
:1032180043F001039AB27B689A8007E07B689B8839
:103228009BB223F001039AB27B689A800C37BD46A3
:103238005DF8047B704700BF80B483B000AF78604E
:103248000B467B8013467B707B78002B08D07B680D
:103258009B899AB27B8813439AB27B689A8109E06A
:103268007B689B899AB27B88DB439BB213409AB2F6
:103278007B689A810C37BD465DF8047B704700BFB8
:1032880080B483B000AF78600B467B807B687A8817
:103298009A820C37BD465DF8047B704780B485B0D0
:1032A80000AF78600B467B800023FB737B681B8A2A
:1032B8009AB27B8813409BB2002B02D00123FB7388
:1032C80001E00023FB73FB7B18461437BD465DF80D
:1032D800047B704780B483B000AF78600B467B8076
:1032E8007B88DB439AB27B681A820C37BD465DF84F
:1032F800047B704780B485B000AF78600B467B8054
:103308000023FB730023BB8100237B817B681B8A1E
:103318009AB27B881340BB817B689B899AB27B8871
:1033280013407B81BB89002B05D07B89002B02D001
:103338000123FB7301E00023FB73FB7B1846143762
:10334800BD465DF8047B704780B483B000AF7860F9
:103358000B467B807B88DB439AB27B681A820C37EA
:10336800BD465DF8047B704780B483B000AF7860D9
:103378000B467B8013463B807A883B8813439AB27E
:103388007B68A3F848200C37BD465DF8047B70477E
:1033980080B483B000AF78600B467B8013467B70A7
:1033A8007B78002B08D07B689B899AB27B88134373
:1033B8009AB27B689A8109E07B689B899AB27B887C
:1033C800DB439BB213409AB27B689A810C37BD46A7
:1033D8005DF8047B704700BF80B483B000AF7860AD
:1033E8000B46FB70FB78002B08D07B689B889BB250
:1033F80043F008039AB27B689A8007E07B689B8851
:103408009BB223F008039AB27B689A800C37BD46BA
:103418005DF8047B704700BF80B483B000AF78606C
:103428007B681B899BB223F007039AB27B681A81D9
:103438000C37BD465DF8047B704700BF80B582B08D
:1034480000AF78600B467B807B887868194600F06F
:1034580087F87B681B899BB243F007039AB27B68A5
:103468001A810837BD4680BD80B584B000AFF860CA
:10347800084611461A4603467B810B463B81134694
:10348800FB807B89602B07D13A89FB88F868114655
:10349800012200F0BDF906E03A89FB88F868114678
:1034A800012200F073F97B89F868194600F058F892
:1034B800FB681B899BB243F007039AB2FB681A8129
:1034C8001037BD4680BD00BF80B586B000AFF8603C
:1034D800084611461A4603467B810B463B81134634
:1034E800FB800023FB8279893A89FB88F86800F021
:1034F800A7F8FB681B89FB82FB8A23F00703FB8282
:10350800FB8A43F00703FB82FB8A23F07003FB82EC
:10351800FB8A43F07003FB82FB68FA8A1A8118372A
:10352800BD4680BD80B584B000AFF860084611463E
:103538001A4603467B810B463B811346FB807989FB
:103548003A89FB88F86800F07BF8FB681B899BB216
:1035580043F480439AB2FB681A811037BD4680BD98
:1035680080B485B000AF78600B467B800023FB8178
:103578007B681B89FB81FB8923F07003FB81FA8937
:103588007B881343FB817B68FA891A811437BD460F
:103598005DF8047B704700BF80B483B000AF7860EB
:1035A8000B467B807B689B889BB223F070039AB2A2
:1035B8007B689A807B689B889AB27B8813439AB20F
:1035C8007B689A800C37BD465DF8047B704700BF66
:1035D80080B483B000AF78600B467B807B681B8922
:1035E8009BB223F007039AB27B681A817B681B8918
:1035F8009AB27B8813439AB27B681A810C37BD460E
:103608005DF8047B704700BF80B483B000AF78607A
:103618000B467B807B681B899BB223F080039AB2A0
:103628007B681A817B681B899AB27B8813439AB29C
:103638007B681A810C37BD465DF8047B704700BF74
:1036480080B487B000AFF860084611461A460346B2
:103658007B810B463B811346FB800023FB82FB6882
:103668001B89FB82FB8ADBB2FB82FB881B029AB2B6
:103678003B8913439AB27B8913439AB2FB8A13435B
:10368800FB82FB68FA8A1A811C37BD465DF8047B09
:10369800704700BF80B487B000AFF8600846114695
:1036A8001A4603467B810B463B811346FB80002369
:1036B800FB820023BB8200237B82FB681B89FB8281
:1036C800FB681B8BBB82FB681B8C7B82FB8A23F00D
:1036D8000703FB82FA8A7B891343FB82BB8A23F4A4
:1036E800407323F00303BB82BB8A43F4807343F027
:1036F8000103BB827B8A23F022037B82FB881B01A8
:103708009AB23B8913439AB27B8A13437B82FB6844
:10371800FA8A1A81FB68BA8A1A83FB687A8A1A8439
:103728001C37BD465DF8047B704700BF80B483B08A
:1037380000AF78600B46FB70FB78002B08D07B68E5
:103748009B889BB243F080039AB27B689A8007E01B
:103758007B689B889BB223F080039AB27B689A802F
:103768000C37BD465DF8047B704700BF80B483B05A
:1037780000AF78600B467B807B687A88A3F850207E
:103788000C37BD465DF8047B704700BF80B487B036
:1037980000AFF860084611461A4603467B810B467F
:1037A8003B811346FB800023FB820023BB82FB681E
:1037B8001B8C9BB223F001039AB2FB681A84FB6846
:1037C8001B8BFB82FB681B8CBB82FB8A23F0F303F9
:1037D800FB82FB881B019AB23B8913439AB2FB8A8E
:1037E8001343FB82BB8A23F00A03BB827A89BB8A14
:1037F80013439BB243F00103BB82FB68FA8A1A8326
:10380800FB68BA8A1A841C37BD465DF8047B70478A
:1038180080B487B000AFF860084611461A460346E0
:103828007B810B463B811346FB800023FB820023F0
:10383800BB8200237B82FB681B8C9BB223F01003A6
:103848009AB2FB681A84FB681B8BFB82FB681B8C93
:10385800BB827B891B017B82FB8A23F440731B0597
:103868001B0DFB82FB881B039AB2FB8A1343FB8266
:103878003B891B029AB2FB8A1343FB82BB8A23F063
:10388800A003BB827A8ABB8A13439BB243F010031E
:10389800BB82FB68FA8A1A83FB68BA8A1A841C37C7
:1038A800BD465DF8047B704780B487B000AFF86010
:1038B800084611461A4603467B810B463B81134650
:1038C800FB800023FB820023BB8200237B82FB68F2
:1038D8001B8C9BB223F480739AB2FB681A84FB6832
:1038E8009B8BFB82FB681B8CBB827B891B027B82C8
:1038F800FB8A23F0F303FB82FB881B019AB23B8906
:1039080013439AB2FB8A1343FB82BB8A23F42063D6
:10391800BB827A8ABB8A13439BB243F48073BB820F
:10392800FB68FA8A9A83FB68BA8A1A841C37BD46F0
:103938005DF8047B704700BF80B487B000AFF860C3
:10394800084611461A4603467B810B463B811346BF
:10395800FB800023FB820023BB8200237B82FB6861
:103968001B8C9BB223F480539AB2FB681A84FB68C1
:103978009B8BFB82FB681B8CBB827B891B037B8236
:10398800FB8A23F440731B051B0DFB823B891B023A
:103998009AB2FB8A1343FB82FB881B039AB2FB8A09
:1039A8001343FB82BB8A23F400535B045B0CBB828A
:1039B8007A8ABB8A13439BB243F48053BB82FB6869
:1039C800FA8A9A83FB68BA8A1A841C37BD465DF85E
:1039D800047B704780B483B000AF7860054A7B6889
:1039E80043F0BF6343F40033D3600C37BD465DF842
:1039F800047B704700ED00E080B485B000AF7860CC
:103A08000023FB730023BB730F237B737B68DB7876
:103A1800002B38D0264BDB68DB4303F4E0631B0A3A
:103A2800FB73FB7BC3F10403BB737A7BFB7B42FA1A
:103A380003F37B737B685B781A46BB7B02FA03F35C
:103A4800FB737B689A787B7B1340DAB2FB7B13436A
:103A5800FB73FB7B1B01FB73164A7B681B781344C3
:103A6800FA7B83F80023134A7B681B785B09DBB277
:103A780018467B681B7803F01F03012101FA03F342
:103A880042F820300FE00B497B681B785B09DBB2FA
:103A980018467B681B7803F01F0301229A4000F147
:103AA800200341F823201437BD465DF8047B704796
:103AB80000ED00E000E100E080B483B000AF786082
:103AC800396007493B6823F0604323F07F037A6835
:103AD80013438B600C37BD465DF8047B704700BF0D
:103AE80000ED00E080B483B000AF03460A46FB71E6
:103AF8001346BB71BB79002B06D00949084B1A69DC
:103B0800FB7913430B6106E00549054B1A69FB79FC
:103B1800DB4313400B610C37BD465DF8047B7047EF
:103B280000ED00E080B483B000AF78607B68042BC0
:103B380006D1094A084B1B6843F00403136005E0EB
:103B4800054A054B1B6823F0040313600C37BD4678
:103B58005DF8047B704700BF10E000E080B582B0DC
:103B680000AF78607B68174A93420AD14FF48050BF
:103B78000121FDF7A3FD4FF480500021FDF79EFDC4
:103B88001CE07B68104A93420AD14FF4804001211F
:103B9800FDF776FD4FF480400021FDF771FD0DE043
:103BA8007B680A4A934209D14FF400400121FDF78E
:103BB80067FD4FF400400021FDF762FD0837BD4660
:103BC80080BD00BF0030014000380040003C00408C
:103BD80080B485B000AF786039600023FB817B68D2
:103BE8001B88FB81FB8903F44153FB813B681A88DE
:103BF8003B685B8813439AB23B689B8813439AB22D
:103C08003B68DB8813439AB23B681B8913439AB21B
:103C18003B685B8913439AB23B689B8913439AB20A
:103C28003B68DB8913439AB2FB891343FB817B68AA
:103C3800FA891A807B689B8B9BB223F400639AB243
:103C48007B689A833B681A8A7B681A821437BD4658
:103C58005DF8047B704700BF80B48BB000AF78601C
:103C6800396000237B830223FB840023BB84012368
:103C78007B840023FB6100237B6100233B610023DD
:103C8800FB600023BB607B689B8B9BB223F47B6348
:103C980023F00F039AB27B689A837B6802221A8406
:103CA8007B689B8B7B833B689B68022B04D100233A
:103CB800BB840223FB8472E03B689B88002B02D103
:103CC80001237B8401E002237B844D4B9B6803F432
:103CD8000003002B05D04A4A494B9B6823F4000394
:103CE8009360474BD3F8842047F6C07313409B0971
:103CF800C3F30803FB60424BD3F8843003F0E0437E
:103D08001B0F03F00703BB603D4B5B6803F03F03E9
:103D18003B613C4A3B69B2FBF3F3FA6802FB03F2EE
:103D2800BB68B2FBF3F37B613B68DB88B3F5007FCC
:103D38000FD17B691A0A13469B0013445B001A468D
:103D48003B689B68B2FBF3F39BB205339BB2FB6104
:103D580012E07B8C5B011A467B69B3FBF2F21346D7
:103D68009B0013445B001A463B689B68B2FBF3F365
:103D78009BB205339BB2FB61FB69234AA2FB032379
:103D8800DB08FB61FB699BB203F00103BB84BB8CBE
:103D9800FA69D31A5B08FB84BB8C1B02BB84FB8CBF
:103DA800012B02D9FB8CFF2B03D90223FB840023B0
:103DB800BB843B68DA88BB8C13439AB2FB8C1343F1
:103DC8009AB27B681A843B681A883B6859883B68B2
:103DD80098883B689B8903439BB20B439BB2134370
:103DE8009AB27B8B13439BB243F400637B837B685B
:103DF8007A8B9A832C37BD465DF8047B704700BFE9
:103E08000038024000127A00CDCCCCCC80B483B00C
:103E180000AF78607B6800221A807B6800225A8095
:103E28007B6800229A807B680022DA807B68002207
:103E38001A817B6800225A817B6800229A817B68FC
:103E48000022DA817B6807221A820C37BD465DF8AA
:103E5800047B704780B483B000AF78607B68002231
:103E68001A807B6800225A807B6800229A807B68CF
:103E78000022DA807B6802229A607B6800229A819D
:103E88000C37BD465DF8047B704700BF80B483B033
:103E980000AF78600B46FB70FB78002B08D07B687E
:103EA8001B889BB243F040039AB27B681A8007E0F4
:103EB8007B681B889BB223F040039AB27B681A8008
:103EC8000C37BD465DF8047B704700BF80B483B0F3
:103ED80000AF78600B46FB70FB78002B08D07B683E
:103EE8009B8B9BB243F480639AB27B689A8307E00A
:103EF8007B689B8B9BB223F480639AB27B689A831E
:103F08000C37BD465DF8047B704700BF80B483B0B2
:103F180000AF78600B467B807B681B889BB223F4DC
:103F280000639AB27B681A807B681B889AB27B8888
:103F380013439AB27B681A800C37BD465DF8047B40
:103F4800704700BF80B483B000AF78600B467B80B9
:103F58007B88B3F5804F08D17B681B889BB243F4FC
:103F680080439AB27B681A8007E07B681B889BB203
:103F780023F480439AB27B681A800C37BD465DF8FB
:103F8800047B704780B483B000AF78600B467B80B9
:103F98007B884FF6FF62934208D07B681B889BB2F0
:103FA80043F480739AB27B681A8007E07B681B88A9
:103FB8009BB223F480739AB27B681A800C37BD4693
:103FC8005DF8047B704700BF80B483B000AF7860B1
:103FD8000B46FB70FB78002B08D07B689B889BB254
:103FE80043F004039AB27B689A8007E07B689B8859
:103FF8009BB223F004039AB27B689A800C37BD46C3
:104008005DF8047B704700BF80B483B000AF786070
:104018000B46FB70FB78002B08D07B689B889BB213
:1040280043F010039AB27B689A8007E07B689B880C
:104038009BB223F010039AB27B689A800C37BD4676
:104048005DF8047B704700BF80B485B000AF78602E
:1040580039600023BB810023FB817B689B8B9BB26B
:1040680023F47B6323F00F039AB27B689A837B68FF
:1040780002221A847B689B8BBB813B681B88B3F543
:10408800007F03D03B681B88002B03D14FF480735B
:10409800FB810BE03B681B88B3F5407F04D03B688D
:1040A8001B88B3F5807F01D10023FB813B685A88C8
:1040B8003B6899883B689B890B439BB213439AB230
:1040C800FB8913439AB2BB8913439BB243F4006341
:1040D800BB817B68BA899A831437BD465DF8047B37
:1040E800704700BF80B483B000AF78607B689B895D
:1040F8009BB218460C37BD465DF8047B704700BF7D
:1041080080B483B000AF78600B467B807B687A8888
:104118009A810C37BD465DF8047B704780B483B044
:1041280000AF78600B46FB70FB78002B08D07B68EB
:104138001B889BB243F400539AB27B681A8007E04D
:104148007B681B889BB223F400539AB27B681A8061
:104158000C37BD465DF8047B704700BF80B483B060
:1041680000AF78607B681B889BB243F480539AB297
:104178007B681A800C37BD465DF8047B704700BF2A
:1041880080B485B000AF78600B46FB700023FB81DC
:10419800FB78012B03D07B681B8BFB8102E07B68DB
:1041A8009B8AFB81FB8918461437BD465DF8047B62
:1041B800704700BF80B483B000AF78607B681B8A0B
:1041C8009BB218460C37BD465DF8047B704700BFAC
:1041D80080B483B000AF78600B467B8013467B7059
:1041E8007B78002B08D07B689B889AB27B88134326
:1041F8009AB27B689A8009E07B689B889AB27B8830
:10420800DB439BB213409AB27B689A800C37BD4659
:104218005DF8047B704700BF80B485B000AF78605C
:104228000B46FB701346BB700023FB810023BB8148
:10423800FB781B09DBB2FB81FB89012202FA03F33D
:10424800BB81BB78002B08D07B689B889AB2BB895E
:1042580013439AB27B689A8009E07B689B889AB27C
:10426800BB89DB439BB213409AB27B689A801437B0
:10427800BD465DF8047B704780B485B000AF7860B8
:104288000B467B800023FB737B681B899AB27B8873
:1042980013409BB2002B02D00123FB7301E00023E3
:1042A800FB73FB7B18461437BD465DF8047B7047EB
:1042B80080B483B000AF78600B467B807B88DB439B
:1042C8009AB27B681A810C37BD465DF8047B70474B
:1042D80080B485B000AF78600B46FB700023FB7399
:1042E8000023BB8100237B8100233B81FB7803F003
:1042F8000F03012202FA03F3BB81FB781B09DBB22F
:104308007B817B89012202FA03F37B817B689B888E
:104318009AB27B8913403B817B681B899AB2BB891F
:1043280013409BB2002B05D03B89002B02D0012300
:10433800FB7301E00023FB73FB7B18461437BD4673
:104348005DF8047B704700BF80B485B000AF78602B
:104358000B46FB700023FB81FB7803F00F0301225F
:1043680002FA03F3FB81FB89DB439AB27B681A816B
:104378001437BD465DF8047B704700BF80B483B036
:1043880000AF78607B681B6823F001027B681A60C5
:104398007B6800221A607B6800225A607B680022D2
:1043A8009A607B680022DA607B6800221A617B6869
:1043B80021225A617B68454A934203D1444B3D22EE
:1043C8009A607EE07B68434A934204D1404B4FF4A5
:1043D80074629A6075E07B683F4A934204D13C4B13
:1043E8004FF474129A606CE07B683C4A934204D1A3
:1043F800374B4FF074629A6063E07B68384A9342A7
:1044080003D1334B374ADA605BE07B68364A934224
:1044180003D12F4B354ADA6053E07B68344A934224
:1044280003D12B4B334ADA604BE07B68324A934224
:1044380004D1274B4FF03D52DA6042E07B682F4AA7
:10444800934203D12E4B3D229A603AE07B682D4A75
:10445800934204D12A4B4FF474629A6031E07B682E
:10446800294A934204D1264B4FF474129A6028E0EB
:104478007B68264A934204D1214B4FF074629A60BC
:104488001FE07B68224A934203D11D4B154ADA602C
:1044980017E07B681F4A934203D1194B134ADA602D
:1044A8000FE07B681C4A934203D1154B114ADA602E
:1044B80007E07B68194A934203D1114B4FF03D52F4
:1044C800DA600C37BD465DF8047B70471060024027
:1044D800006002402860024040600240586002408C
:1044E800706002403D00002088600240400F0020BC
:1044F800A060024000003D20B86002401064024005
:10450800006402402864024040640240586402404B
:104518007064024088640240A0640240B8640240AB
:1045280080B485B000AF786039600023FB607B6899
:104538001B68FB60FA68244B1340FB603B681A68F1
:104548003B68DB681A433B685B691A433B689B69B5
:104558001A433B68DB691A433B681B6A1A433B688A
:104568005B6A1A433B689B6A1A433B685B6B1A4356
:104578003B689B6B1343FA681343FB607B68FA68DC
:104588001A607B685B69FB60FB6823F00703FB60CC
:104598003B68DA6A3B681B6B1343FA681343FB609A
:1045A8007B68FA685A613B681A697B685A603B689D
:1045B8005A687B689A603B689A687B68DA60143747
:1045C800BD465DF8047B70473F801CF080B483B023
:1045D80000AF78607B6800221A607B6800225A600E
:1045E8007B6800229A607B680022DA607B68002280
:1045F8001A617B6800225A617B6800229A617B6895
:104608000022DA617B6800221A627B6800225A6203
:104618007B6800229A627B680022DA627B6800224B
:104628001A637B6800225A637B6800229A630C37FE
:10463800BD465DF8047B704780B483B000AF7860F6
:104648000B46FB70FB78002B06D07B681B6843F099
:1046580001027B681A6005E07B681B6823F0010291
:104668007B681A600C37BD465DF8047B704700BF55
:1046780080B483B000AF786039603B68002B06D007
:104688007B681B6843F400427B681A6005E07B681E
:104698001B6823F400427B681A600C37BD465DF83E
:1046A800047B704780B483B000AF786039603B68A2
:1046B800002B06D07B681B6843F020027B681A60D9
:1046C80005E07B681B6823F020027B681A600C37C2
:1046D800BD465DF8047B704780B483B000AF786056
:1046E8000B467B807A887B685A600C37BD465DF83C
:1046F800047B704780B483B000AF78607B685B68E8
:104708009BB218460C37BD465DF8047B704700BF66
:1047180080B485B000AFF860B9607A607B68002B20
:1047280006D0FB681B6843F40022FB681A6005E0AA
:10473800FB681B6823F40022FB681A60FB68BA68F0
:104748001A611437BD465DF8047B704780B483B0A6
:1047580000AF78600B46FB70FB78002B06D07B68B7
:104768001B6843F480227B681A6005E07B681B683D
:1047780023F480227B681A600C37BD465DF8047B01
:10478800704700BF80B485B000AFF860B9607A6048
:104798007B68002B03D0FB68BA681A6102E0FB68EB
:1047A800BA68DA601437BD465DF8047B704700BF0D
:1047B80080B485B000AF78600023FB607B681B681D
:1047C80003F40023002B02D00123FB6001E0002347
:1047D800FB60FB6818461437BD465DF8047B7047DC
:1047E80080B485B000AF78600023FB737B681B68DA
:1047F80003F00103002B02D00123FB7301E0002327
:10480800FB73FB7B18461437BD465DF8047B704785
:1048180080B485B000AF78600023FB607B685B697B
:1048280003F03803FB60FB6818461437BD465DF893
:10483800047B704780B487B000AF7860396000238C
:10484800FB750023FB607B68154A934202D8154B21
:104858003B6101E0144B3B613B6803F00053002BC4
:1048680003D03B695B68FB6002E03B691B68FB6047
:10487800FB6823F0F02323F08213FB60FA683B689F
:104888001340002B02D00123FB7501E00023FB75C8
:10489800FB7D18461C37BD465DF8047B704700BF9A
:1048A8000F640240006002400064024080B485B09A
:1048B80000AF786039607B68104A934202D8104B89
:1048C800FB6001E00F4BFB603B6803F00053002BDB
:1048D80007D03B6823F0F02323F08213FA68D360F3
:1048E80006E03B6823F0F02323F08213FA68936014
:1048F8001437BD465DF8047B704700BF0F64024063
:10490800006002400064024080B485B000AFF860E7
:10491800B9601346FB71BB6803F08003002B0FD00E
:10492800FB79002B06D0FB685B6943F08002FB68CB
:104938005A6105E0FB685B6923F08002FB685A61F5
:10494800BB68802B14D0FB79002B08D0FB681A6851
:10495800BB6803F01E031A43FB681A6008E0FB6893
:104968001A68BB6803F01E03DB431A40FB681A6031
:104978001437BD465DF8047B704700BF80B487B02C
:1049880000AF786039600023FB750023FB600023CB
:10499800BB607B68224A934202D8224B3B6101E00C
:1049A800214B3B613B6823F0F02323F0C313002B1A
:1049B8000AD03B68DB0A03F01E03FB607B681A68B9
:1049C800FB681340BB6004E07B685B6903F080030D
:1049D800BB603B6803F00053002B03D03B695B6866
:1049E800FB6002E03B691B68FB60FB6823F0F02377
:1049F80023F08213FB60FA683B681340002B05D054
:104A0800BB68002B02D00123FB7501E00023FB7576
:104A1800FB7D18461C37BD465DF8047B704700BF18
:104A28000F640240006002400064024080B485B018
:104A380000AF786039607B68104A934202D8104B07
:104A4800FB6001E00F4BFB603B6803F00053002B59
:104A580007D03B6823F0F02323F08213FA68D36071
:104A680006E03B6823F0F02323F08213FA68936092
:104A78001437BD465DF8047B704700BF0F640240E1
:104A88000060024000640240204E00080000002040
:104A98005C0400206004002024750020002103E04D
:104AA8000B4B5B58435004310A480B4B42189A424F
:104AB800F6D30A4A02E0002342F8043B084B9A4224
:104AC800F9D3FCF7DFF800F03BF8FCF767F870471C
:104AD800204E0008000000205C0400206004002034
:104AE80024750020FEE70000014600200246034628
:104AF80000F09CB808B50021044600F0F3F8044B18
:104B08001868C36B03B19847204600F07BF900BFD3
:104B1800EC4D000838B5084B084DED1AAC1018BF1D
:104B2800ED1805D0013C55F8043D9847002CF9D103
:104B3800BDE8384000F060B91C4E0008204E00085F
:104B480070B50F4E0F4D761BB61018BF002405D058
:104B5800013455F8043B9847A642F9D10A4E0B4D4B
:104B6800761B00F043F9B61018BF002406D00134B4
:104B780055F8043B9847A642F9D170BD70BD00BFF7
:104B8800144E0008144E00081C4E0008144E00086D
:104B980070B4840746D0541E002A41D0CDB20346D3
:104BA80002E0621EE4B3144603F8015B9A07F8D1E9
:104BB800032C2ED9CDB245EA05250F2C45EA05452B
:104BC80019D903F110022646103E0F2E42F8105C48
:104BD80042F80C5C42F8085C42F8045C02F11002EE
:104BE800F2D8A4F1100222F00F0204F00F041032E0
:104BF800032C13440DD91E462246043A032A46F8CC
:104C0800045BFAD8221F22F003020432134404F092
:104C180003042CB1C9B21C4403F8011BA342FBD105
:104C280070BC704714460346C2E700BF2DE9F04741
:104C3800254C2568D5F84841064688469246994647
:104C4800CCB360681F2818DC431C7EB104EB8005D8
:104C58000121C5F888A0D4F8887101FA00F2174339
:104C6800022EC4F88871C5F808911ED0023063601E
:104C780044F820800020BDE8F087144B03B34FF4BC
:104C8800C870AFF300800446D0B1D5F8483100278A
:104C980080E88800C5F8484138460123C4F888717F
:104CA800C4F88C71002EE1D0D0E7D4F88C110A43F7
:104CB800C4F88C21DAE705F5A674C5F84841C0E7C1
:104CC8004FF0FF30BDE8F087EC4D00080000000011
:104CD800024B13B10248FFF707BF704700000000FE
:104CE8001D4B00082DE9F04F314B83B01B68009332
:104CF80003F5A47381460E460193009BD3F84871CF
:104D080027B3DDF804A07C68651E0ED4013407EBD8
:104D180084044FF00008E6B1D4F80031B34218D04B
:104D2800013D6B1CA4F10404F5D1224B73B17B68DF
:104D3800002B36D13B68002B34D03846CAF80030F7
:104D4800AFF30080DAF80070002FDCD103B0BDE8C3
:104D5800F08F7B682268013BAB420CBF7D60C4F8D2
:104D68000080002ADCD0D7F88831D7F804B00121B8
:104D7800A940194208D190477B685B45BDD1DAF854
:104D88000030BB42CCD0B8E7D7F88C31194204D1F7
:104D98004846D4F880109047EEE7D4F88000904752
:104DA800EAE73B68BA461F46002FACD1CEE700BF02
:104DB800EC4D0008000000002A000000540000002C
:104DC800A8000000C8000000F00000000200000079
:104DD80004000000070000000A0000000A000000AC
:104DE800430000003000002000000000F8B500BFBC
:104DF800F8BC08BC9E467047F8B500BFF8BC08BCB4
:044E08009E4670470B
:084E0C0020B4FF7F010000004B
:084E1400D94C0008F50100086B
:044E1C00CD010008BC
:104E20000000000020000000007A030A00000000DB
:104E3000000000000102030406070809000000004A
:104E40000102030401020304060708090000000030
:104E5000000000001C03002084030020EC0300205D
:104E60000000000000000000000000000000000042
:104E70000000000000000000000000000000000032
:104E800000000000E84D00080000000000000000E5
:104E90000000000000000000000000000000000012
:104EA0000000000000000000000000000000000002
:104EB00000000000000000000000000000000000F2
:104EC00000000000000000000000000000000000E2
:104ED00000000000000000000000000000000000D2
:104EE00000000000000000000000000000000000C2
:104EF00000000000000000000100000000000000B1
:104F00000E33CDAB34126DE6ECDE05000B00000075
:104F10000000000000000000000000000000000091
:104F20000000000000000000000000000000000081
:104F30000000000000000000000000000000000071
:104F40000000000000000000000000000000000061
:0C527000000000000000000030000020E2
:04527C00000000002E
:0400000508004AA500
:00000001FF
